:020000022000DC
:1070000000000420757302005D7302005F730200CC
:1070100061730200637302006573020000000000E8
:107020000000000000000000000000006773020084
:1070300069730200000000006B7302006D730200B0
:10704000FD9802006F730200999D02006F730200A9
:107050006F7302006F7302001D9C02006F730200C9
:107060006F7302006F7302006F7302006F73020090
:107070006F7302006F7302006F7302006F73020080
:107080006F730200A58902006F7302006F73020024
:107090006F7302006F7302008DC902006F730200EC
:1070A0006F7302006F7302006F7302006F73020050
:1070B0006F7302006F730200000000000000000008
:1070C0006F7302006F7302006F7302006F73020030
:1070D0006F7302006F7302006F7302006F73020020
:1070E0006F7302006F7302006F73020000000000F4
:1070F000000000006F730200000000006F730200C8
:10710000000000000000000000000000000000007F
:10711000000000000000000000000000000000006F
:10712000000000000000000000000000000000005F
:10713000000000000000000000000000000000004F
:10714000000000000000000000000000000000003F
:10715000000000000000000000000000000000002F
:10716000000000000000000000000000000000001F
:10717000000000000000000000000000000000000F
:1071800000000000000000000000000000000000FF
:1071900000000000000000000000000000000000EF
:1071A00000000000000000000000000000000000DF
:1071B00000000000000000000000000000000000CF
:1071C00000000000000000000000000000000000BF
:1071D00000000000000000000000000000000000AF
:1071E000000000000000000000000000000000009F
:1071F000000000000000000000000000000000008F
:10720000354936480A1A02D0072291438D4634493F
:1072100034480A1A06D00722914381F309880222D2
:1072200082F3148830483149314A00F044F831483B
:107230003149324A00F03FF831483249324A00F0D1
:107240003AF832483249334A00F035F83248334987
:10725000334A00F030F833483349344A00F02BF811
:1072600033483449344A00F026F83448344900227F
:1072700000F02CF833483449002200F027F8334856
:107280003349091A082902DB002202604160314AB1
:1072900090471F481F49884205D00268043003B454
:1072A000904703BCF7E700208646EC46002000210B
:1072B000294A9047FEE7884207D0521A05D0037842
:1072C00001300B700131013AF9D17047884202D088
:1072D00002700130FAE770470000042000E003204C
:1072E000000004200000042010DF0200E82A002033
:1072F000D02B0020D0730200D073020080CF020098
:1073000010DF0200E82A0020E82A002084D00200D2
:1073100084D0020084D0020084D0020084D0020015
:1073200084D0020084D0020084D0020010DF02006A
:10733000F8DF0200D02B0020D02B0020D02B002023
:10734000803E0020803E0020803E0020803E0020C5
:10735000805E00209D7302002DB00200FEE7FEE774
:10736000FEE7FEE7FEE7FEE7FEE7FEE7FEE7FEE7F5
:1073700000F002B8FFF7FCBF0F484FF00701884349
:1073800085460E4880470E48016841F4700101604F
:10739000BFF34F8FBFF36F8FFFF732BF09480A4922
:1073A0000A4A884207D0521A05D0037801300B7080
:1073B0000131013AF9D1704700000420FD9202002A
:1073C00088ED00E084D00200E82A0020E82A0020AE
:1073D0007047000007B5044B0093044A402300F0B7
:1073E00032F803B05DF804FBF1730200D12B0020EA
:1073F0002DE9F84388461446B2B10F4B0F4E0325D2
:10740000002743F00109224608EB0701002003F0A2
:1074100091FF0744241A48B933782BB14FF47A40CE
:10742000C847013D02D13570BDE8F88301233370B0
:10743000002CE8D1F8E700BF90D00200D02B00204C
:10744000704703F0A7BFF0B595B01D461646084635
:107450000C4601F055FE1A9B0D93CDE908650025F9
:107460002B46082205A920460A958DF82C500C952C
:1074700001F062FE079B0293069B03939DF8143074
:107480008DF8115003F00302012A1DD1BDF814201C
:10749000059DC3F3C203C2F383168DF81030B2000A
:1074A00008230EA9204601F047FEC5F3952508AB39
:1074B0000093324602AB0EA9284600F033FB20466B
:1074C00001F022FE15B0F0BD022AF8D1BDF8165029
:1074D000C3F3C203C5F389158DF810300827082DB2
:1074E0002E4628BF08263B4632460EA9204601F00C
:1074F00023FEAD1B08AB02AA31460EA8374400F0AC
:1075000075FB002DEBD1DAE708B5FFF79AFF0448C9
:10751000042100F071FA034B01225A7108BD00BF2B
:1075200074D00200E82A0020037813F0040216D079
:1075300003F00303012B03D0022B09D00120704775
:107540000A6800880232C0F3831002440A60F5E73B
:107550000B684288023303EB92130B60EEE7104690
:10756000704700002DE9F04FDFF81CA187B00F46EF
:1075700000230446861C0DF1070015468DF80730E0
:1075800001F0A2F8DAF804203A60DAF8083003F5DE
:1075900080739B1A0AF21C470AF583690AF21448A1
:1075A000B3421AD30020002D69D004F00F039B01D1
:1075B00043F0050363F30F00DAF80430DAB2033264
:1075C00033444AF822009DF80700CAF8043001F05D
:1075D0009FF8012007B0BDE8F08F0121384601F087
:1075E000BEFA484601F0D3FA404601F0D0FADAF884
:1075F00008000290C0B203300AEB800002A9FFF736
:1076000093FF029B30BBDAB20AEB8202D16803918E
:107610009A1C0133DBB20AEB83030292D3F80CB05D
:1076200001F00303012B22D0022B15D083464046E4
:1076300001F0B0FA10B1029BCAF80830594638463A
:1076400001F08DFADAF80830DAF8042003F58073D7
:107650009B1AA5E7D8B2CEE7BDF80E30C3F3891365
:1076600003334FEA1B4B02EB93030293DFE7BDF8B2
:107670000C30C3F383134FEA1B4B1344F5E7A40507
:1076800044F0060098E700BFE42C0020064B0748B2
:1076900010B500221A7001F0ECFC044610B9044841
:1076A00001F094FD204610BDE42C0020E0CF020044
:1076B000CCD0020030B50A4C71B10A4A0A49121BFB
:1076C000D20800239A4201D1002030BD31F8235066
:1076D000854202D00133F5E7034654F83300F4E75E
:1076E000F4CF020074D00200E82A0020094B0139CF
:1076F00003EBC000032909D8DFE801F00A02040601
:107700000420704700797047407970470020704727
:1077100002207047F4CF020070470000034BD3E90A
:107720000130C31A58425841704700BFE42C002072
:107730002DE9F04186B0FFF7F1FF0546002840F043
:10774000ED80774CC4F81804BFF34F8FA368029301
:10775000DBB2033304EB830002A9FFF7E5FE029BD3
:1077600018B1D4F81824002A5AD0DAB2991C01337F
:1077700004EB8202DBB204EB8303D268DB68049380
:1077800002F00303022B0392029154D1BDF80E3094
:107790006448C3F38917502F3E4628BF502606F190
:1077A000080166F38F13C1F30901ADF80E3001F043
:1077B00078FC0546002800F09C8001F0A1FC002325
:1077C000082203A9284601F0ADFC0299CB43DBB2A5
:1077D0000133C9B20331B6EB830F4FEA830204EBE6
:1077E000810125D95FFA82F80823A6EB080628460E
:1077F00001F098FCF6B208F108034B4903F0FC03D2
:107800003246284601F08EFC029B033703EB9707B4
:107810000297D4F81834002B43D1D4F8106453E005
:1078200062689A4294D8A260284606B0BDE8F0810A
:1078300008233246E5E7012B5BD1BDF80C3039480F
:10784000C3F38311062928BF062161F3891302318E
:1078500001F00F018900ADF80C3001F022FC054663
:10786000002846D001F04CFC0023082203A928463A
:1078700001F058FC0026BDF80C20C2F38312B300BF
:10788000964203F10803C4D202994A1CC9B20331DB
:10789000029204EB81010422284601F043FC0136E8
:1078A000E9E7284601F030FCFFF738FF80F00100DF
:1078B000C5B2B9E7F3685B7923B1336829461B6821
:1078C00030469847F3681E68002EF3D1284601F031
:1078D0001BFC0DF107008DF8076000F0F5FED4F8F1
:1078E00018340BB9029BA3609DF8070000F010FF4D
:1078F000DAE7D4F8104454B90C4B0D480D49C01ABE
:10790000C008000440F0020000F05EF8CCE72368F5
:1079100020469B689847E3681C68ECE7002583E7EE
:10792000E42C0020E0CF0200F02C0020F4CF020075
:107930001CD00200B4D002002DE9F34704460E46E5
:10794000924601A9012218469946FFF70BFE1C4FEB
:1079500010B3019D4FF00008AA1CC84508EB0201B6
:1079600025D11848002101F0CBF880F31000000465
:1079700040EA1440E4006B1C04F03804DBB2EDB2C2
:1079800044F0010407EB8303033544EA881444EA16
:107990008624D86047F825403B781BB1FFF7C8FE26
:1079A0000028FBD1FFF7B8FE02B0BDE8F087C9B2EE
:1079B00007EB81015AF82830CB6008F10108CCE7C9
:1079C000E42C00200031002000231A46FFF7B4BF4A
:1079D00007B50123019201AAFFF7AEFF03B05DF8DE
:1079E00004FB07B5CDE9002302236A46FFF7A4FF95
:1079F00003B05DF804FB000030B50F4CD4F8102440
:107A000003460020114631B9D96808714AB9C4F853
:107A100010340A6030BDC9680D79854206D0096806
:107A2000F1E7D26814680C601360F3E701300A28AC
:107A3000E8D14FF0FF30EDE7E42C002038B5084BDB
:107A40000125D3F810441D7004B938BDE3685D7199
:107A5000236820465B689847E3681C68F4E700BF2A
:107A6000E42C002030B5C38885B004460D4633B100
:107A7000144A00921449154A284601F0EEF8217A7A
:107A800005291DD0637A4BB1A088FFF72FFE104B5C
:107A9000104953F82020284601F0DFF8227A0E4BD7
:107AA000A08853F8222003920021FFF703FE039AD7
:107AB0000A490346284605B0BDE8304001F0CDB87C
:107AC00005B030BDF8D00200E0D00200D8D00200EE
:107AD00064D10200FDD0020088D1020000D1020072
:107AE00007B503460846197A052911D05B7A2BB1F0
:107AF000094A0A49019001F0B0F80198084901903B
:107B000001F0ABF8019803B05DF804EB01F09AB80E
:107B1000002AF8D0F2E700BFF8D00200FDD0020042
:107B2000F5D002002DE9F04385B01F460C9D0023DF
:107B300095F80C902B7306460C469046294638461D
:107B4000FFF790FFB8F1060F09D8DFE808F004123C
:107B5000181F283340003146284601F07EF80022E5
:107B600029463846FFF7BCFF85F80C9005B0BDE804
:107B7000F08322683146284601F06FF8EFE7D4E938
:107B800000233146284601F068F8E8E7A36800932F
:107B90003146D4E90023284601F05FF8DFE7E368C7
:107BA0000193A36800933146D4E90023284601F0ED
:107BB00054F8D4E723690293E3680193A368009320
:107BC0003146D4E90023284601F047F8C7E7636946
:107BD000039323690293E3680193A36800933146FA
:107BE000D4E90023284601F038F8B8E708292DE940
:107BF000F74F80460E4617461C463DD800251B7B96
:107C00002573214610460193FFF72CFFDFF88CA067
:107C1000DFF88CB0AE4232D918F80520594620461C
:107C200001F01BF80135082DF4D11B49DFF874A0D1
:107C3000DFF874B0204601F010F84FF000094E450F
:107C400024D918F809507E2D1ED8284605F0C6F80C
:107C5000002814BF2A462E225946204600F0FDFF78
:107C600009F10109B9F1080FE9D10122214638468D
:107C7000FFF736FF019B237303B0BDE8F08F514639
:107C8000204600F0EAFFCDE72E22E5E751462046E8
:107C900000F0E3FFE4E700BF14D1020010D10200BE
:107CA0000AD1020012D1020016D10200C30710B59A
:107CB00007D4F023054A4008145C234019431154AB
:107CC00010BD0901C9B20F23F4E700BFB031002095
:107CD00030B5094B1C78094B196800239C4202DC23
:107CE0000022104630BD11F83350854201EBC3022B
:107CF000F7D00133F2E700BF9C310020D0310020E3
:107D000013B504460191FFF7E3FF38B143682BB187
:107D10000199204602B0BDE81040184702B010BDDE
:107D2000034B044819680022490800F087BA00BFD5
:107D3000A0310020F02A002010B5C0B2FFF7C8FF24
:107D40000446007801F05CFF63785A1E53425341A9
:107D5000834208D1044BD3E90023134303D1BDE888
:107D60001040FFF7DDBF10BDA831002037B5430834
:107D7000374AD35CC2074CBF1B0903F00F0304460C
:107D80000D46042B25D8DFE803F003262F3C4000E6
:107D9000F9B10121FFF78AFF00230DF107008DF8EB
:107DA000073000F091FC0120A4F12003C4F1200170
:107DB000284A20FA01F100FA03F30B43A040D2E96C
:107DC000004120430B43C2E900039DF8070000F087
:107DD0009FFC03B030BD002918BF0221204603B02C
:107DE000BDE83040FFF762BF49B10321FFF75EFFF6
:107DF0000121204603B0BDE83040FFF781BF0121DB
:107E0000ECE70029E5D10421E8E709B10321E5E722
:107E1000FFF74CFF29462046FFF772FF0DF10700E0
:107E20008DF8075000F050FC0120A4F12003C4F1AC
:107E30002001084A20FA01F100FA03F30B43A040A5
:107E4000D2E9004124EA000021EA0303BBE700BFB6
:107E5000B0310020A83100202DE9F041124E134F1F
:107E600000243378A34208DC114BD3E900231343E9
:107E700018D0BDE8F041FFF753BF3D6805EBC408DB
:107E800015F8340001F0BCFE98F801305A1E534238
:107E90005341181A4142414115F83400FFF766FF7B
:107EA0000134DEE7BDE8F0819C310020D0310020B4
:107EB000A8310020092AF7B505460C4616463ED9DA
:107EC00001F0C6FDE8B11F4B1F481D601F4B204F3E
:107ED0001C70204B002120221E6004F0C9FF1E4BA5
:107EE00000200021C3E90001013CE4B20326FF2C7D
:107EF0000DD11A4A1A48002103B0BDE8F04000F045
:107F00008BB901F061FD0028DDD003B0F0BD9DF814
:107F1000063015F834008DF8046005EBC40223F038
:107F200007038DF8063001A993788DF805303A469D
:107F300001F098FD013CE4B20028D8D0E5E7072025
:107F4000E3E700BFD0310020B03100209C31002099
:107F5000397D0200A0310020A8310020597E0200A6
:107F6000A8D1020070B5084D084E00242B789C4221
:107F700001D3002070BD3368012113F8340001F0F3
:107F8000F1FD0134F2E700BF9C310020D031002028
:107F90001FB50021039001AA44F20100CDE90111AF
:107FA00000F004F805B05DF804FB000038B572B6C7
:107FB000FFF744FDFFF7BCFB0028FBD1104B114C31
:107FC000114D1249E41AE408240444F00100FFF7BB
:107FD000FBFCD5F8F030DB0700D500BE0C4944F0BF
:107FE0000200FFF7F1FCBFF34F8FEA68094B02F480
:107FF000E0621343EB60BFF34F8F00BFFDE700BFAC
:10800000F4CF02001CD0020000ED00E0ACD1020071
:10801000B8D102000400FA0549B152B1531E1A400A
:1080200007D1826001608380C260104670470E20D5
:1080300070470920704710B58468C2688388121B96
:10804000934208D3C26813400268D154C368013315
:10805000C360002010BD0420FCE78268C3689A4218
:108060000AD08268838813400268D35C0B708368EF
:1080700001338360002070470520704710B5D0E9B8
:108080000243D1E90202A04272EB03032CBF01209C
:10809000002010BD08B50A4800F06DFC094AD2E97D
:1080A0000031C018084BD3E9002341F10001904290
:1080B00071EB030303D210F1807041F1000108BDA0
:1080C000102B0020D83100205032002037B5054653
:1080D0000C460A4801A900F082FC60B105704460BA
:1080E00001A9064800F0A5FC18B1054800F048FCBD
:1080F000002003B030BD0420FBE700BF3C3200206D
:10810000102B0020294B73B51E7804461EB900269B
:10811000304602B070BD0028F9D0FFF7BBFFD4E9AC
:1081200002239042994139D300230DF107008DF8C5
:10813000073000F0C9FA23692BB94FF0FF324FF036
:10814000FF33C4E902239DF8070000F0E1FAD4E907
:108150000530984700250DF107008DF8075000F015
:10816000B3FA2369C3B1D4E90212B2F1FF3F08BFE9
:10817000B1F1FF3F05D05B1842F10002C4E90232C1
:1081800035469DF8070000F0C3FA002DBFD008481F
:10819000214601F03AF8BBE71D46F2E7B3F1FF3F95
:1081A00008BFB2F1FF3FB2D0F1E700BFE0310020DD
:1081B000D4D1020013B5114B11491868019008235E
:1081C0001048582200F0F8FB044698B90E4A0F48B0
:1081D00001A900F0C1FA044660B90C48012100F081
:1081E000ADFB01230A4A0948194600F00FFB094B71
:1081F00001221A70204602B010BD00BFD0D102008B
:10820000E43100203C320020F5820200102B0020D7
:10821000FFFF7F00E031002030B56AB103684FF006
:10822000FF344FF0FF355A614A1E5142C3E90245FF
:1082300051411961002030BD0720FCE7F7B5044625
:1082400000250DF1070017460E468DF8075000F087
:108250003BFAD4E90223B3F1FF3F08BFB2F1FF3F7D
:1082600007D1FFF717FF301841F10001C4E90201FF
:1082700001259DF8070000F04BFA55B12369A7616D
:1082800003B126612146002003B0BDE8F040FFF7AE
:108290001DBF284603B0F0BD37B5054600240DF1DB
:1082A00007008DF8074000F00FFAD5E90223B3F17B
:1082B000FF3F08BFB2F1FF3F1FBF4FF0FF324FF04B
:1082C000FF33C5E9022301249DF8070000F020FADE
:1082D00034B12946012003B0BDE83040FFF7F6BEB7
:1082E000204603B030BD0000014800F044BB00BF91
:1082F000102B00202DE9F743064600F027FB40B184
:10830000624AD2E9003113F1807341F10001C2E900
:1083100000310021304600F028FB38B15C4C236866
:1083200023B12068FFF7EEFE0023236001213046D1
:1083300000F01BFB20B1FFF7ADFE564BC3E9000177
:108340005548534C01A900F084FB4FF0FF384FF023
:10835000FF39A0B9DFF844814D4D404600F06BFF76
:10836000002800F08580D0E90223B3F1FF3F08BF69
:10837000B2F1FF3F32D1404600F057FFEDE70378FE
:10838000012B20D0022B08D1444D284600F04DFF90
:10839000002877D0C0E90289F7E75BB94168D1E9E5
:1083A0000223B3F1FF3F08BFB2F1FF3F02D03B48C9
:1083B00000F02BFF01A9384800F076FB01A93648F0
:1083C00000F047FBC5E741682368994202D10023CA
:1083D0002360EFE7314800F031FFEBE7296891B106
:1083E0002968D1E9020182428B412FD22B68D3E95F
:1083F0000223B3F1FF3F08BFB2F1FF3F03D029686A
:10840000404600F002FF404600F00FFFD0E902496D
:108410000746FFF73FFE201A69EB0109012879F1B1
:10842000000318DBB0F5350F13D3FFF75DFF1C4ACF
:1084300002441C484FF49603002100F007FA90B95B
:108440002B6813B9304600F0D9F92F6003B0BDE8AE
:10845000F0832246EDE71348002100F07CFA38460D
:10846000FFF750FE01E00D28F9D000232B6074E7E0
:10847000074B1B68002BE9D1304603B0BDE8F04341
:1084800000F0C0B9084B01221A7093E7D8310020E0
:1084900058320020503200203C320020D4D102005B
:1084A000FFFFB400102B0020E03100200648074AEF
:1084B00003780749D35C012213B1043002F002B9FA
:1084C0000C3001F0ABBE00BF182B0020D4320020CE
:1084D000843200200648074A03780749D35C01220A
:1084E00013B1043002F0A0B80C3001F047BE00BF59
:1084F000182B0020D43200208532002037B50578B3
:10850000012D0DD0022D30D075B91F491F48FFF73E
:10851000A4FD002834D103B0BDE83040FFF7DABF36
:10852000037A1BB9FFF7C2FF03B030BD4368184C94
:1085300019782046FFF77FFD80B18DF8005001903B
:10854000144B68461B689847A168E368A2885B1AC9
:108550009A42E7D2104B01221A70E5E7A268E3685D
:108560009A42F1D08DF80000EAE7C3688DF8005018
:108570000193FFF79BFF074B68461B689847D3E7BB
:1085800003238DF80030F6E7853200207432002096
:10859000603200205C32002070320020F0B51F46AF
:1085A000234B89B004461A600D4600293DD08A88C5
:1085B00020480968FFF730FD002834D1AA89A9684E
:1085C0001D48FFF729FD00282DD11C4E0FCE6D460A
:1085D0000FC596E80F0085E80F0063690693237CBA
:1085E000174A18488DF81C70003B18BF01238DF8FE
:1085F0001430637C002B14BF0E2300238DF815303C
:10860000E3680293A3680393236801936946636850
:10861000009301F0FBF830B90B4B1870236801335D
:1086200001D0FFF743FF09B0F0BD0720FBE700BF13
:108630005C3200206032002074320020E0D1020061
:10864000FD840200182B00207032002070B5084D08
:10865000014608482E78FFF700FD044636B1002396
:108660002B70FFF723FF08B1FFF792FC204670BD87
:10867000703200206032002010B501460E48FFF72E
:10868000DAFC0446A8B90D480D4A0378D35C63B1FF
:10869000043001F0BDFF60B90A490748FFF7DDFC6F
:1086A00038B9BDE81040FFF715BF0C3001F05AFD96
:1086B000F1E7204610BD00BF74320020182B0020C7
:1086C000D43200208532002070B5EFF3108672B6E8
:1086D0000C4A946801239CB993600B4B0B4DD3F863
:1086E000801029401160C3F88050D3F88410516085
:1086F0004FF0FF32C3F88420047006B962B670BD33
:108700000370FAE78832002000E100E0FC06FFBDBC
:10871000084B9A6810B55AB150B9EFF3108172B690
:10872000054A1C6814605C685460986001B962B6C0
:1087300010BD00BF8832002000E100E0435882B045
:108740003BB10023435043580193019B012002B0E9
:1087500070471846FBE70000F8B5204B4479204EDF
:1087600043F824201F4A204B06EBC4049B1A2279AD
:10877000DB081B0432B143F002001C49FFF724F967
:108780000820F8BD02680C88C2F8084590F904502A
:108790008A7804795201002DD2B219DB14494F199D
:1087A00087F8002301226D0904F01F0402FA04F483
:1087B00041F82540427906EBC201012446F8320017
:1087C0000C7143F003000B49FFF7FEF80020D8E7D7
:1087D000094904F00F040A55ECE700BF9C32002061
:1087E00094320020F4CF02002CD0020000D202000C
:1087F00000E100E022D2020014ED00E00368012253
:108800001A607047036801225A60704773B501F11E
:108810005005AD000068ADB24FF480348C400026A6
:10882000C0F80843C0F84843465101F5A8714559BE
:10883000019522F07F42019D40F82120C0F8444379
:108840000BB1C0F8044302B070BD00002DE9F74F32
:108850000D4622F07F4402684FF4803705F1500640
:108860008F408046B60002EB8500C2F84873B6B26E
:10887000C2F80873D2F8041599464FF0000BD0F8EF
:108880004035C0F8401542F806B05B1A9259009284
:1088900023F07F43012B009A4FEA850A0CD1264B27
:1088A0004FF4806043F001039847D8F8003043F854
:1088B00006B09B590193019BD8F80010D1F80465CC
:1088C000C1F84473A31B23F07F43012B1CD11A4B27
:1088D00005F5A875013443F0010341F825404FF434
:1088E00080609847D8F80030D3F804359E4209D10B
:1088F000D8F800300020C3F84473C3F8047303B001
:10890000BDE8F08F0D20FAE78A44C9F1FF13CAF8D9
:108910004045D1F80405221A013A22F07F4203F5BE
:108920007F439342EED3002AE2D10134CAF8404596
:10893000D1F804359842DAE740D2020003680222F7
:10894000C3F8442309B1C3F80423704700684FF407
:108950008271FFF7F3BE4FF4803303FA01F103682D
:10896000C3F84813C3F808137047503189000068F2
:1089700089B2FFF7E3BE0368D3F80405704700002F
:1089800090F90430002B09DB5A09012103F01F0381
:1089900001FA03F34032024941F82230704700BF28
:1089A00000E100E0024B034A1B681068184700BF53
:1089B0009C3200209432002010B561B1B2FBF3F478
:1089C00003FB1424A4B244B9C0E90014846082817A
:1089D000C381204610BD0E20FCE70920FAE737B519
:1089E00050E8013F9DB2C48925448489A54228BF2F
:1089F0002D1B0489A54202BFBFF32F8F002207E081
:108A0000C5EA030540E80154002CE9D14FF001020A
:108A10008DF803200193019A0A609DF8031001F07C
:108A2000FF0321B1006810FA82F003B030BD184690
:108A3000FBE70A884B889A4209D150E8012FC2EA25
:108A4000024240E80123002BF7D1012070470020AB
:108A5000704737B550E8023F1FFAA3F5C488A54216
:108A600002BFBFF32F8F00220DE0C4892544848903
:108A7000A54228BF2D1BC3EA054540E80254002C3F
:108A8000E8D14FF001028DF803200193019A0A60AA
:108A90009DF8031001F0FF0321B1006800EB1240C4
:108AA00003B030BD1846FBE70A884B889A4209D1CB
:108AB00050E8022FC2EA224240E80223002BF7D1FD
:108AC000012070470020704701F01F024B0901216F
:108AD000914000EB830000F01EB801F01F0301225B
:108AE0009A404B0900EB8300D14300F02CB84B09AE
:108AF00001F01F0150F82300C84000F0010070474A
:108B000010B5034653E8000F0A4643E8002494F0EA
:108B1000000FF7D110BD10B5034653E8002F42EA0D
:108B2000010043E8000494F0000FF6D110BD10B529
:108B3000034653E8000F00EA010243E8002494F0E2
:108B4000000FF6D110BD10B5034653E8002F02EA1E
:108B5000010043E8000494F0000FF6D110BD10B5F9
:108B6000034653E8002F02EB010043E8000494F0B1
:108B7000000FF6D110BD10B5034653E8002FA2EB4D
:108B8000010043E8000494F0000FF6D110BD01216C
:108B9000FFF7C1BF0021FFF7CABF10B590B1D0E900
:108BA000012301689B1ADBB20A60013BDBB2FF2B99
:108BB000026802D10020107110BD11684C1C1460B5
:108BC0000B70F2E70E20F7E737B5054600240DF1EC
:108BD00007008DF80740FFF777FD2A686B6811687A
:108BE00099420ED9481E106011F8013CEC68298AA0
:108BF00001FB0344AB6811791B1ADBB2994238BF01
:108C000013719DF80700FFF783FD204603B030BDC8
:108C100037B5054600230DF107000C468DF80730E7
:108C2000FFF752FD2A681368591C1160E968641A3D
:108C3000298AB4FBF1F41C709DF80700FFF768FD6A
:108C400003B030BD826810B504462AB1436901689B
:108C5000006998470023A36010BD0EB403B50399C3
:108C600021B104AB01AA019300F076F802B05DF8DF
:108C700004EB03B070470A2938B504460D4602D10B
:108C80000D21FFF7F8FFA3682268591CA160D55495
:108C9000D4E901329A4204D32046BDE83840FFF7B8
:108CA000D1BF38BD2DE9F84F9846DDE90A43154696
:108CB00082460F460A464FF00109AA420FD2C1452B
:108CC00038BFC14613F0010B01D16CB90024012655
:108CD000B8F1010F1BD908F1FF386E43F8E709F12D
:108CE0000109B2FBF5F2E8E79B070ED5B8F1000FDA
:108CF0000CBF30262026A145E9D2013C3146504622
:108D0000FFF7B9FF002CF6D1E0E72026F3E7B7FB29
:108D1000F6F39D42E1D9DFF83C80B7FBF6F350460D
:108D200018F8031006FB1377FFF7A5FF3346AB4295
:108D3000B6FBF5F6F1D2BBF1000F02D00CB1A145A4
:108D400001D3BDE8F88F20215046013CFFF793FF87
:108D5000F4E700BF46D202002DE9F74F054617465B
:108D60008846002900F03E8118F8011B49B92B7B89
:108D7000002B00F03781284603B0BDE8F04FFFF725
:108D800061BF252940F0B780002698F800302D2BD0
:108D9000424608F1010823D0302B24D02B2B25D0BC
:108DA00000242A2B02F1010123D13B681A1D1B6804
:108DB0003A601C440A4613782E2B26D101324FF01C
:108DC000000A104610F8011BA1F1300CBCF1090F8C
:108DD0001DD80A2303FB0A13A3F1300A0246F0E769
:108DE00046F00106D1E746F00206CEE746F004065B
:108DF000CBE711F8013CA3F130000928DBD80A22A7
:108E000002FB0434303C0A46CBE74FF0000A12F86C
:108E1000011B01F0FB0068289046F8D0782909D89A
:108E20006F290CD8632962D022D8252963D058290C
:108E300000F0888098F80030002B95D197E77039C2
:108E40000829F7D801A353F821F000BFBF8F020013
:108E5000358E0200358E0200558F0200358E0200DD
:108E6000338F0200358E0200358E0200458F0200DE
:108E7000642901D06929DDD13A68D2F80090111D2A
:108E800089EAE9723960A2EBE9724FF0010B092A15
:108E900035DCD34538BFD3462CB1B9F1000F01DB27
:108EA000720700D5013CB30702D5BAF1000F03D019
:108EB000F00701D44CBB0024B9F1000F2DDAC9F141
:108EC00000092D212846FFF7D6FE06F00302022AEC
:108ED00004D1BAF1000F01D11CBB0024CDE900463A
:108EE00053460A2249462846FFF7DCFEA2E73B68C4
:108EF0001A1D19783A602846FFF7BDFE9AE70A2343
:108F00000BF1010BB2FBF3F2C1E7A345D4D2202150
:108F10002846013CFFF7AFFECCE77107D5D52B21E2
:108F2000D0E7A345DAD230212846013CFFF7A3FE63
:108F3000D2E73968CDE900460A1D3A6053460A2255
:108F40000968D0E739680A1D3A60CDE90046534602
:108F50001022F5E73B681A1D3A6016F00106D3F8B7
:108F6000009024D1B9F1000F03D0484603F0D5FF9B
:108F70000646B4421DD809F1FF3919F8011F00292E
:108F80003FF458AF2846FFF776FEF6E7284601364D
:108F9000FFF771FE19F806100029F7D1A642BFF4B9
:108FA00049AF20212846013CFFF765FEF6E7002681
:108FB000F0E720212846013CFFF75DFED9E73B683A
:108FC0001A1D3A60302128461C68FFF754FE7821AC
:108FD0002846FFF750FE00220823CDE90032214643
:108FE000102280E703B0BDE8F08F00BF2DE9F84FF5
:108FF000B0F806A04579D2F800B09DF828900AFB99
:1090000005F5043D88460BEB0301A94203F1040476
:1090100088BFA5EB030BB4FBFAF607460AFB164420
:10902000C2F800B04EB9AAEB04055D4528BF5D4605
:10903000BBF1000F04D1BDE8F88F3F68013EF1E7B6
:10904000043408EB06003C442A46B9F1000F0DD069
:109050002146ABEB050B03F0E2FEDA452E443F68F8
:1090600055464FF0000428BF5D46E1E70146204623
:10907000EFE7FFF792BDF8B546790146721E054647
:10908000002393422D6803D30024A64202D8F8BDE2
:109090000133F6E70F682846FFF7BAFD0134394679
:1090A000F3E72DE9F843068ACD1C0746FFF78CFD50
:1090B000043E35440446B5FBF6F5F0B14FF4807339
:1090C000EDB28380C680013D076081464FF0000805
:1090D000A84512D23846FFF777FD064648B16379B6
:1090E0000133637108F10108C9F800000760814687
:1090F000EEE72046FFF7BFFF34462046BDE8F88381
:1091000001210430FFF72BBD10B5012104460430C6
:10911000FFF731FDC0B220B92046BDE81040FFF78F
:10912000AABF10BD1FB503920022009203AAFFF749
:109130005DFF05B05DF804FB1FB5039201220092AC
:1091400003AAFFF753FF05B05DF804FB41DF70474A
:10915000064B10B500241C70054B1C60BFF35F8FDD
:109160000449054800F03BF8204610BDA832002015
:10917000AC32002060D20200A032002007B50023EC
:109180000DF107008DF80730FFF79EFAF1EE103A67
:1091900023F09F03E1EE103ABFF35F8F0A4B4022AA
:1091A000C3F884219DF80700FFF7B2FA03F0D4FB5F
:1091B00020B103B05DF804EBFFF7C8BF20BF40BF8C
:1091C00020BF03B05DF804FB00E100E083680022EB
:1091D0005A60C3E904229A60DA601A6070470B682B
:1091E0004A684360934208BF0023016008BF4360A0
:1091F0007047436843B10268916852680B449342D8
:10920000436004BF00234360704770B5446806465E
:109210000D46206818B1B3682946984718B92368E5
:109220002B60256070BD2468F3E74368186808B1B7
:1092300002681A6070474368186870474368186886
:1092400000B97047884203D102681A600120704754
:1092500003460068F4E7000010B50D49A1F59472CB
:10926000914201D800200FE08C1AE30F03EBE403D6
:109270005B1002EBC30452F83330834205D802D2AC
:1092800004F10802ECE7606810BD2146E8E700BF82
:109290006CD7020008B5FFF7DFFF024B002808BFBC
:1092A000184608BD2FD6020010B50446C0B2FFF71D
:1092B000E3F9204610BD4FF08053D3F83001A0F100
:1092C00008035842584170474FF08053D3F830217B
:1092D000082A06D1D3F83431052B02D8024AD05CD3
:1092E00070470020704700BF72D70200024AD2F8D0
:1092F0000034002BFBD0704700E0014010B5FFF7B1
:10930000DAFF40B14FF080430022C3F80C21C3F8CC
:109310001021C3F83825FFF7CEFF002846D04FF0C4
:109320008052654BD2F80414C3F82015D2F8081403
:10933000C3F82415D2F80C14C3F82815D2F8101469
:10934000C3F82C15D2F81414C3F83015D2F8181439
:10935000C3F83415D2F81C14C3F84015D2F8201401
:10936000C3F84415D2F82414C3F84815D2F82814C9
:10937000C3F84C15D2F82C14C3F85015D2F8301499
:10938000C3F85415D2F83414C3F86015D2F8381461
:10939000C3F86415D2F83C14C3F86815D2F8401429
:1093A000C3F86C15D2F84424C3F87025FFF78CFF7E
:1093B00018B1424B424AC3F88C26FFF785FF18B11B
:1093C000404BFB22C3F81825FFF77EFF70B14FF02A
:1093D00080414FF08053D1F8E42ED3F8583222F078
:1093E0000F0203F00F031343C1F8E43EFFF76CFFD5
:1093F00020B1354B4FF40072C3F84026FFF75BFFF6
:1094000048B14FF08043D3F80024D20744BF6FF037
:109410000102C3F800242D4AD2F8883043F47003C7
:10942000C2F88830BFF34F8FBFF36F8F4FF0805378
:10943000D3F83021082A0ED1D3F83431052B02D8C5
:10944000234AD35C3BB14FF01023D3F808224FF0EE
:109450008043C3F858254FF01023D3F80022002A88
:1094600003DBD3F80432002B22DA1A4901234FF030
:109470001020C1F804351224FFF738FFC0F800426D
:10948000FFF734FFC0F80442FFF730FF0023C1F8B4
:109490000435FFF72BFFBFF34F8F0C490E4BCA6803
:1094A00002F4E0621343CB60BFF34F8F00BFFDE7D0
:1094B0000A4B0B4A1A6010BD00C00040005000402B
:1094C0004881030000F000400090024000ED00E001
:1094D0006CD7020000E001400400FA052C2B0020AC
:1094E0000090D003074B1B5C1F2B8ABF064A4FF02E
:1094F000A04203F01F03D2F80405D840C04300F097
:10950000010070477CD7020000030050074B1B5C32
:109510001F2B86BF064903F01F034FF0A041012215
:1095200002FA03F3C1F80C35704700BF7CD7020084
:1095300000030050074B1B5C1F2B86BF064903F03E
:109540001F034FF0A041012202FA03F3C1F80835CE
:10955000704700BF7CD702000003005008B5002010
:10956000FFF7E8FF0120FFF7E5FF0220FFF7E2FF2A
:10957000BDE808400320FFF7DDBF08B50020FFF776
:10958000C5FF0120FFF7C2FF0220FFF7BFFFBDE8C4
:1095900008400320FFF7BABF0A4B185C1F288ABF98
:1095A000094B4FF0A04300F01F00D3F80425012120
:1095B000814021EA02000A40C3F80805C3F80C25DF
:1095C000704700BF7CD7020000030050074B1B5CB4
:1095D0001F2B8ABF064A4FF0A04203F01F03D2F8A8
:1095E0001005D840C04300F00100704778D7020052
:1095F000000300500B2809D00C2809D0182809D0E6
:1096000019280CBF03204FF0FF307047002070472F
:109610000120704702207047014B185C704700BF63
:1096200078D70200C20710B504460CD54FF0A0430E
:109630000322C3F83427C3F83827C3F83C27C3F8FC
:109640004027FFF78BFFA3070AD54FF0A0430C225A
:10965000C3F82C27C3F83027C3F86027C3F8642762
:1096600010BD000038B5074C051E04F1080318BFF3
:109670001C4623682BB11A6822605B68284698470D
:10968000F7E738BDB832002020B9054B01225A70E7
:10969000FFF7E8BF012802D1014A9070F8E7704750
:1096A000B032002020B9034B01225A70FFF7DABF15
:1096B000704700BFB032002038B50E4C2378B3B9E4
:1096C0000D486360A3602361E36000F0E7F805469E
:1096D00003F042F908B900F0EDF801232370074BBD
:1096E000D3F800340BB10123A370284638BD85257B
:1096F000F5E700BFB032002089960200000001406B
:1097000037B50D4C00230DF107008DF80730FEF73B
:10971000DBFFE368013BE360E36833B9074BD3F851
:10972000005415B900F0D8F8A5709DF80700FEF7B1
:10973000EFFF03B030BD00BFB03200200000014099
:10974000012813B50CD0032820D038B9134B0122BF
:10975000C3F88020BFF34F8FBFF36F8F02B010BDEF
:109760000F4C00230DF107008DF80730FEF7ACFF1A
:1097700023780BB9FFF7A0FFE3689DF807000133DA
:10978000E3600123A370FEF7C3FFE7E700F092F860
:1097900002B0BDE81040FFF7B3BF00BF00E100E03A
:1097A000B03200201FB503788DF800304368019374
:1097B00083688DF80830C368054A0393054B6846F3
:1097C00053F8213052F82110984705B05DF804FB9A
:1097D000C4320020CC3200201FB503788DF8003051
:1097E0004368019383688DF80830C368054A039382
:1097F000054B684653F8213052F82110984705B0C0
:109800005DF804FBC4320020CC320020F0B5194BC7
:1098100090F800C0DFF86CE043F82C20164B164699
:109820000A6943F82C204B7F0EF80C300C46074693
:109830000FCC89B06D460FC594E80F0085E80F0086
:109840003B78CDF810C01EF803304BB1002E0B4A08
:10985000694608BF3246381D00F0FEFD09B0F0BD74
:10986000002E074A694608BF324607F10C0000F097
:10987000A9FBF3E7CC320020C4320020A5970200F8
:10988000D9970200D432002000F18040002382B03A
:10989000036003680193019B02B07047044A137987
:1098A00023B90121106091801846704785207047C8
:1098B000D8320020074B1A68D20704D4C02283F89C
:1098C000002301221A604FF080430122C3F81825BB
:1098D000704700BF00E100E04FF0804208B502236E
:1098E000C2F808334FF48270FFF7CEFF0123D36034
:1098F000D2F81834DB03FBD408BD00004FF08041E0
:1099000010B5D1F8003163B14FF48070FFF7BCFFA0
:109910000D4B58790122C1F8082310B95A711B6800
:1099200098474FF08042D2F8043163B14FF482700F
:10993000FFF7AAFF0223C2F80833034BBDE810402B
:109940001B680120184710BDD832002000F180406C
:1099500000F5C040002382B0036003680193019BBF
:1099600002B0704703681F2B83BF03F01F0303601F
:1099700001484FF0A04070470003005007B5019028
:1099800001A8FFF7EFFF019B00EB8300D0F8003741
:1099900023F44033C0F80037D0F8003743EA0141E0
:1099A000C0F8001703B05DF804FB0000054B4FF052
:1099B000FF32072843F8202084BFC01880F85820C1
:1099C000704700BFE032002038B51D4991F86A3079
:1099D000A3BB4FF6FF70FF245A09012A0CBF0246B1
:1099E0004FF0FF3203F01F05EA40D20748BFCA1804
:1099F00003F1010348BF82F83040302BECD1002442
:109A0000E0B20134FFF7D2FF0C2CF9D10D4B00224C
:109A10004A669A800C4BC02083F8060340201860E9
:109A20004FF4BE70FFF792FF084B4FF00040C3F8B1
:109A30000403012381F86A30104638BD0820FCE792
:109A4000E03200204433002000E100E000600040EC
:109A5000034B93F86A00003818BF0120704700BF1D
:109A6000E0320020F7B53D4F3B18044693F9303003
:109A7000002B71DA8B78C3F34003002B0BBF082552
:109A800000250C200820854202D1042003B0F0BD3F
:109A900057F82560013647D138196EB247F82520AE
:109AA00080F8306013B97B1983F858408B785A07D7
:109AB0001AD4D8073AD501A80194FFF753FF019BA8
:109AC00000EB8300D0F8003723F00203C0F8003722
:109AD0002348E20804F0070C012303FA0CF310F802
:109AE00002C043EA0C03835488780B7810F002001C
:109AF00028D0AD0005F1804505F5C0452402D5F814
:109B0000102522F44F3222F44072C5F810251B04B0
:109B1000D5F8102504F47C5403F440331C4314435B
:109B2000C5F810450020B1E70135ACE701A84A7837
:109B30000194FFF717FF019B03F5E073920040F8D3
:109B40002320C5E7083E47FA86F797F8604044EAC5
:109B5000831387F8603099E7082097E7E032002008
:109B60004433002073B5244D2E18044696F9302056
:109B7000072A1DDD083A45FA82F595F860309B0901
:109B8000032B10D1019001A8FFF7ECFE019BD0F848
:109B90001015D94001F001010231204602B0BDE8A4
:109BA0007040FFF7EBBE012B0CBF02210321F4E74D
:109BB000D3B2072B1DD8930003F1804303F5C043B4
:109BC000D3F8100540F00100C3F8100502F1400081
:109BD00040B2800080B2FFF7B9FE51B196F9303043
:109BE00055F823302BB1012303FA02F2034BC3F8DB
:109BF000042302B070BD00BFE032002000600040CE
:109C000007B5019001A8FFF7ADFE019BD0F8100544
:109C1000D84000F0010003B05DF804FB2DE9FF47D8
:109C20000024CDE90244584D4FF48072012102F125
:109C3000804303F5C04390B21B68012B06D1D5F8D1
:109C400004330B4202D0FFF781FE0C430432B2F51D
:109C5000907F4FEA4101EAD14B4BD3F87C31012B85
:109C600011D14FF4BE70FFF771FE4FF0A04344F0E6
:109C70000044D3F820250292C3F82025D3F82028E9
:109C80000392C3F82028E3B2D3B1404F0025012648
:109C9000344210D0AB0003F1804303F5C043D3F846
:109CA0001005D3F8101557F8253023B1C1F3014141
:109CB000C0F3052098470135082D4FEA4606E7D145
:109CC000002C59DA314D324C324E4FF0000801274A
:109CD00016F9013B5A1C3CD0C3F3C20104A801444D
:109CE0005FFA83F911F8081C03F03F0203F0070341
:109CF00007FA03F319422CD001A80192FFF732FEB4
:109D0000019B03F5E07350F82330C3F3014ABAF125
:109D1000020F0CBF032102211046FFF72FFE01A8FE
:109D20000192FFF71FFE019B07FA03F3C0F82035ED
:109D3000AB1893F9303055F8233053B14FEA9911ED
:109D4000032904D0BAF1020F19D1012901D110461B
:109D5000984708F10108B8F1040FB9D14FF0A043BA
:109D6000D3F820250292C3F82025D4F82035039398
:109D7000C4F820351343A7D104B0BDE8F087BAF189
:109D8000030FE6D10229E1E700600040E032002045
:109D90000003005040330020014B1B68184700BFF0
:109DA0004C3300200E4B984237B50C4602D00020B1
:109DB00003B030BD00230DF107008DF80730FEF72A
:109DC00083FC084B1D7915B901221C601A719DF89E
:109DD0000700FEF79DFC002DE9D01120E8E700BF49
:109DE000002000404C3300200023435082B04358F1
:109DF0000193019B02B070470A4610B54FF48E7173
:109E0000FFF7F2FF136A9168C95C136A01331362AA
:109E1000C0F81C1510BD024608B500684FF49271D9
:109E2000FFF7E2FF10684FF48471FFF7DDFF13685E
:109E300001221A6008BD8B690A4610B54FF484717F
:109E400023B9FFF7D1FFD0F8183510BDFFF7CCFFCD
:109E5000536AD168D0F81805C854536A0133536265
:109E6000F3E700001FB501238DF80030044BCDE966
:109E70000110D3E900126846904705B05DF804FB75
:109E80005433002030B54D4DD5F804339A0585B0D4
:109E900051D5D5F82431002B4DD04FF4927128467E
:109EA000FFF7A2FF4FF40173C5F80833444B93F852
:109EB00029200AB901226A60404902228DF8002057
:109EC000D1F88024C1F8802403929A690292DA685A
:109ED00001920022C3E906226846D3E900129047A6
:109EE0003648D0F81C315BB1354A5169136A994242
:109EF0004DD992F82830002B49D11146FFF77CFF4D
:109F00002E48D0F84431002B56D04FF4A271FFF701
:109F10006BFF2B4B93F829200AB1012202609A694A
:109F2000002A49D0586AD96800229A6105B0BDE874
:109F30003040FFF797BFD5F804335B07D0D5D5F88D
:109F40000831002BCCD01E4C1C482146FFF773FF74
:109F5000636AA2699A42C3D1E369E1684BB1A36124
:109F60002369E3600023606AE3616362FFF77AFFBD
:109F7000B6E794F829300BB901236B600F4B4FF40F
:109F80000172C3F808230023606AA361EEE70B485F
:109F90004FF48E71FFF728FF5369002BB0D0516941
:109FA0000291002391688DF8003001915361684659
:109FB000D2E900139847A3E705B030BD0020004068
:109FC000543300202DE9F843604D90F804802C2391
:109FD00003FB0853064693F82A300C469146002BA3
:109FE00040F0AF805A490068FFF7DCFE07460028C2
:109FF00040F0A9802268531C10D01F2A87BF554902
:10A0000002F01F0313464FF0A0410120984003F5D2
:10A01000E073C1F80805032041F823006168481C7B
:10A020000DD01F298BBF01F01F030B4649484FF08D
:10A03000A04003F5E0734FF0000C40F823C03068F7
:10A04000A369C0F8243594F814C0637DBCF1010FF6
:10A050004CEA0303C0F86C35C0F81415C0F80C25A1
:10A060002BD1A368591C0DD01F2B8BBF03F01F02EF
:10A070001A4638494FF0A04102F5E0724FF0000C4B
:10A0800041F822C0E1684A1C13D01F2987BF314A1A
:10A0900001F01F0C8C464FF0A0424FF0010E0EFA5B
:10A0A0000CFE0CF5E07CC2F808E54FF0030E42F818
:10A0B0002CE0C0F80815C0F810352C2202FB08F27D
:10A0C000AB18C3F804902369AB50B9F1000F20D04E
:10A0D0004FF48E71247FFFF787FE4FF4A271306832
:10A0E000FFF782FE32681C4BC2F80433130B42F3B5
:10A0F00007326101002AC9B21EDB1848841884F8AF
:10A1000000130121520903F01F0301FA03F340F881
:10A11000223033680422C3F800252C2303FB0853A4
:10A120000022C3E9062283F829205A61012283F81C
:10A130002A203846BDE8F883094A03F00F03D154BA
:10A14000E7E70827F5E71127F3E700BF54330020BE
:10A15000859E0200000300508000020000E100E044
:10A1600014ED00E00279044B2C2101FB0233586905
:10A17000003818BF01207047543300202DE9F84FF4
:10A18000064690F8048089469246FFF7EBFF0446A6
:10A1900000283CD1204F2C2508FB057B4FF48E7105
:10A1A000CBF814A0CBF80890CBF820008BF828004F
:10A1B0003068FFF719FE3068012383605946FFF7C6
:10A1C0001BFEDBF804305D461BBB3068DBF8144037
:10A1D0002B6A9C4211D83368D3F81C21002AFBD08B
:10A1E0000122DA6000202C2303FB087700237B6127
:10A1F000BDE8F88F95F828303BB9D0F81C31002B1A
:10A20000F8D05946FFF7F8FDE2E70F20EBE7112001
:10A21000EEE72046ECE700BF543300202DE9F0477D
:10A220003A4D07792C2303FB075306465C6824B19B
:10A2300003684FF40170C3F808032C2303FB075392
:10A24000986950B1D869002841D024B133684FF4DF
:10A250000172C3F80423112436E09A61D960586270
:10A26000D8612C2303FB075393F829301BB910B98D
:10A270003046FFF7D0FD4FF02C0808FB075A306836
:10A28000DAF80430002B37D14FF4A271D046FFF733
:10A29000ABFD3068D0F82491D0F80831D0F84441B3
:10A2A000CBB914B9B9F1000FF3D02C2303FB075538
:10A2B0000023AB61B9F1000F24D12CBB95F8291014
:10A2C00033680122B1B11A602046BDE8F0871961F8
:10A2D000DA610120C5E7B9F1000FE6D1002CE4D125
:10A2E0004146FFF7A8FDDAF82430DAF818209A4240
:10A2F000CFD8DAE75A60E7E74FF40173C0F80433C8
:10A300000024E1E70324DFE70F24DDE754330020D6
:10A310000023435082B043580193019B02B0704721
:10A320001FB501238DF80030044BCDE90110D3E9AE
:10A3300000126846904705B05DF804FB80330020AA
:10A340007FB5434AD2F82461002E60D010464FF406
:10A350009271FFF7DDFF02238DF80030D2F88034D0
:10A36000C2F880340393D2F83C350293394BDA6853
:10A3700001920022C3E906226846D3E90012904701
:10A380003348D0F8443173B14FF4A271FFF7C0FFE6
:10A39000304B9A693AB10022C3E90622D968D0F855
:10A3A0003C05FFF7BDFF2A48D0F82031ABB14FF490
:10A3B0009071FFF7ADFF0123C360264B5A6962B16C
:10A3C000D0F84C150291002299688DF80020019177
:10A3D0005A616846D3E9001290471D48D0F85831B9
:10A3E0009BB14FF4AC71FFF793FF1A4B5A6962B1FE
:10A3F000D0F84C150291002299688DF80020019147
:10A400005A616846D3E90012904704B070BDD2F893
:10A410001031002BB4D04FF488711046FFF778FF4D
:10A420000C4BD2F83C0599698842A9D1DC69D968FE
:10A4300064B1D2F8005225F02005C2F800521A6922
:10A440009C61DA60DE61FFF76BFF99E79C61FAE7D8
:10A4500000200040803300202DE9F843664E90F83C
:10A460000480242303FB0863044693F820300D4640
:10A470009146002B40F0BC8060490068FFF792FCD9
:10A480000746002840F0B68029684B1C10D01F29D1
:10A4900087BF5B4A01F01F030B464FF0A04201202B
:10A4A000984003F5E073C2F80805032042F8230042
:10A4B0006A68501C0DD01F2A8BBF02F01F03134681
:10A4C0004F484FF0A04003F5E0734FF0000C40F808
:10A4D00023C02068AB69C0F8243595F814C06B7DA3
:10A4E000BCF1010F4CEA0303C0F86C35C0F80C1541
:10A4F000C0F814252BD1AB68591C0DD01F2B8BBF76
:10A5000003F01F021A463E494FF0A04102F5E072E7
:10A510004FF0000C41F822C0E9684A1C13D01F29F3
:10A5200087BF374A01F01F0C8C464FF0A0424FF016
:10A53000010E0EFA0CFE0CF5E07CC2F808E54FF0B7
:10A54000030E42F82CE0C0F80815C0F8103524229C
:10A5500002FB08F2B318C3F804902B69B350B9F1A9
:10A56000000F2FD04FF488712A7FFFF7D1FE2068AB
:10A570004FF49071FFF7CCFE20684FF49271FFF713
:10A58000C7FE20684FF4A271FFF7C2FE4FF4AC7112
:10A590002068FFF7BDFE23681A49C3F80413190B9E
:10A5A00043F307335201002BD2B21CDB1648C51807
:10A5B00085F8002301225B0901F01F0102FA01F175
:10A5C00040F8231023680822C3F80025242303FB46
:10A5D00008660023C6E906337361012386F820303C
:10A5E0003846BDE8F883094B01F00F015A54E9E7FA
:10A5F0000827F5E71127F3E78033002041A3020085
:10A60000000300501003420000E100E014ED00E000
:10A610000279044B242101FB02335869003818BF2A
:10A62000012070478033002001F06043B3F1005FE8
:10A630002DE9F0470646884692463BD190F80490B3
:10A64000FFF7E6FF0446002836D11D4F3068242569
:10A6500005FB09754FF49071C5F814A0C5F8088082
:10A66000FFF756FE4FF4AC713068FFF751FE3368C8
:10A670006A69A968C3F84415C3F8482501229A609D
:10A680006A68DAB9D3F82021D3F858011AB900283A
:10A69000F8D00F2007E00028FBD10122DA60D3F8C0
:10A6A0005821002AFBD0242303FB097700237B6178
:10A6B000BDE8F0871020FBE71120F9E72046F7E717
:10A6C00080330020F8B501F06043B3F1005F044629
:10A6D0000F465ED10379304D242101FB03514968B7
:10A6E00021B100684FF40476C0F80863242000FB11
:10A6F00003539E6956B1D869002839D021B1236827
:10A700004FF40472C3F80423112030E09A61DF6033
:10A71000DE6120684FF48871FFF7FAFD20684FF47E
:10A72000A271FFF7F5FD2368C3F83475C3F8382527
:10A7300016BB01221A602479242202FB04525268BB
:10A740000ABBD3F81011D3F84421D3F824011143E4
:10A7500002D10028F5D00A46242303FB0455002328
:10A76000984218BF03209A42AB6118BF0F20F8BD72
:10A770001F61DA610126CCE7D3F8002242F0200203
:10A78000C3F80022D7E74FF40472C3F80423002073
:10A79000EDE71020EBE700BF803300201F288ABFC1
:10A7A000094B4FF0A04300F01F0003EB8000D0F8EE
:10A7B000003723F44033C0F80037D0F8003743EABD
:10A7C0000141C0F800177047000300500220FEF757
:10A7D000E3BE00002DE9F04780460D46FEF70AFF74
:10A7E0000328044610D8012D10D0022D30D05DB9B9
:10A7F0001A48FDF751FD1A4B04EB440213449D78AF
:10A80000184B1B5DAB4219D0BDE8F087144E00EB2E
:10A810004003F218F55C5378470053B1DFF84C90D1
:10A820000E484A464FF48041FDF708FD08B989F803
:10A83000008027443E440B4BB2781A55002DE3D0DC
:10A84000094B1B68002BDFD02846BDE8F0471847AE
:10A8500000EB4004024804446578EFE7502B0020E9
:10A86000A6330020C1330020BC330020A4330020D5
:10A8700000780221FFF7AEBF08B5094B1B7853B132
:10A880000020FEF757FE0120FEF754FEBDE8084009
:10A890000320FEF74FBEBDE80840FEF75FBE00BFD5
:10A8A000A5330020F8B57A4C237805461BB1002368
:10A8B0002370FFF7E1FF172D00F28780DFE805F036
:10A8C0000C1717425364757F878C878C94999999DC
:10A8D0009999C3C8D0D8E3E3FFF7CEFF6D48FDF7E1
:10A8E000DBFC6D4B002204461A702046F8BD0020A8
:10A8F000FEF7F8FDF0B10020FEF71CFE022D0CBFA4
:10A900004FF4E1644FF47A64634B1D7000254FF4FB
:10A9100000464FF47A7029464FF4FA620023E4FBB4
:10A92000060102F09BF92A460146BDE8F840594865
:10A93000FDF784BCFEF7EAFD022D0CBFC8244FF4DE
:10A94000C874E1E70020FEF7CDFD40B10020FEF71E
:10A95000F1FD4FF44874504B03221A70D6E7FEF70E
:10A96000D5FDC824F7E70020FEF7BCFD38B1002074
:10A97000FEF7E0FD4FF47A64474B0422EDE7FEF763
:10A98000C5FD4FF4C874F7E70020FEF7ABFD48B1F2
:10A990000020FEF7CFFD404B05221A7040F6CD4156
:10A9A0000022C2E7FEF7B2FDF5E70020FEF7F4FD56
:10A9B000394B06221A70002240F26661B5E700208A
:10A9C000FEF7A4FD344B07221A7000248DE7012006
:10A9D0002070FEF7E1FDEEE701202070FEF7DCFDC0
:10A9E00000224FF40051A0E7FEF7C7FD2A4B0C22CE
:10A9F000EAE72A482A4EFDF74FFCD5F11105044637
:10AA00001CD0D8B9012D13D0C820454321464FF49E
:10AA100000474FF47A704FF4FA620023C5FB070138
:10AA200002F01CF9224601461C48FDF707FC0446CB
:10AA30000220FEF76BFD0123337056E70220FEF77C
:10AA400079FD0023F8E7FFF717FF134B1222BBE74E
:10AA5000FFF712FF0020FEF759FD0F4B1322B3E75B
:10AA6000FFF70AFF0120FEF751FD0B4B1422ABE765
:10AA7000FFF702FF0020FEF749FD0120FEF746FD2B
:10AA8000054B1522A0E7FEF778FD034B1D709CE7F0
:10AA9000B8330020702B0020C0330020302B002062
:10AAA000A5330020044B1B68DB0703D5034B187844
:10AAB000FFF7F8BE704700BFB4330020C03300205A
:10AAC000032801D8FEF782BD00207047044B1B68A5
:10AAD00013F0010301D0FFF7E5BE1846704700BF31
:10AAE000B433002038B51C4B18601C4B10F0020426
:10AAF000054619601AD01A4B1A480E221A700F22F6
:10AB0000DA7010229A7111225A72042140F2333203
:10AB1000FDF7D0F9044648B9FDF724FA044628B9F0
:10AB20000146114A1148FDF777FB0446EB0711D5A2
:10AB30000120FEF777FD6CB921460D4A0D48FDF75F
:10AB40006BFB044630B9BDE838400B4A0B48012185
:10AB5000FDF762BB204638BDB4330020BC33002073
:10AB6000A6330020A0D7020071A80200C4D70200BB
:10AB7000A5AA0200C8D70200CDA70200C0D70200D4
:10AB8000032811D8012A0AD101290FD100F10E02A0
:10AB9000D2B20D4B00EB40001A540020704701293F
:10ABA000F7D0022904D049B1072070470022F8E706
:10ABB000054B00EB400018444270EEE7024B00EBFF
:10ABC000400018448270E8E7A6330020032808B547
:10ABD00006D8FEF721FD0321FFF7E0FD002008BDA8
:10ABE0000620FCE708B5012202210020FFF7C8FF7C
:10ABF00008B1072810D1072202210120FFF7C0FF6A
:10AC000008B1072808D100210A220846FFF7B8FF3B
:10AC100010B1072808BF002008BD00000388102BD2
:10AC200010B502D0112B1ED010BD1A4C2168B1B93D
:10AC300001220846FFF7A4FF08B1072824D1072204
:10AC400002210120FFF79CFF08B107281CD1042234
:10AC500002210020FFF794FF08B1072814D12368D0
:10AC600001332360E0E70B4A1368013B1360002BBC
:10AC7000DAD1FFF7B7FF0028D6D0074B1B68002BAF
:10AC8000D2D0BDE810401847034B1B68002BE6D01C
:10AC90009847E4E7CC330020C833002008B50020F3
:10ACA000FFF794FF08B1062806D10120FFF78EFFB9
:10ACB00010B1062808BF002008BD00000D4B10B5DC
:10ACC00018600C4629B10120FFF7FAFE40B10223BB
:10ACD0002370094B1B6853B9BDE81040FFF782BFD2
:10ACE000FFF7EEFE08B10B23F2E72070F1E700203A
:10ACF00010BD00BFC8330020CC33002076DF704782
:10AD00007ADF70477CDF70477FDF70478FDF7047E7
:10AD1000B1DF704733DF7047FDF73AB908B500205F
:10AD2000FFF7D4FE08B1FDF733F9FFF7B7FF08B11D
:10AD3000FDF72EF9FFF7EEFF18B1BDE80840FDF76B
:10AD400027B908BD0388212B13B504463FD007D887
:10AD5000112B2DD0132B48D0102B0CD002B010BDCE
:10AD6000522B4AD0562B01D03B2BF7D1A088132170
:10AD7000FFF7C4FF15E0254B25482649C01AC00837
:10AD8000000440F00300FCF71FFE0720FFF79EFEC3
:10AD900008B1FDF7FDF8204BA1882048198001F08B
:10ADA000A9FB0028DAD002B0BDE81040FDF7F0B8EA
:10ADB000164B17481A49C01AC008000440F0030097
:10ADC000FCF702FE144B4FF6FF721A80C6E7002311
:10ADD00080888DF8043001A98DF80530FFF796FFC3
:10ADE0000028BBD0FDF7D4F8B8E70B4800231A467B
:10ADF00085210088FFF788FFD3E7074800231A461C
:10AE000019460088FFF784FFCBE700BFF4CF0200AC
:10AE10001CD00200CCD70200962B00201439002051
:10AE2000D6D7020008B503784BB9054B3B211888EB
:10AE3000FFF764FF18B1BDE80840FDF7A9B808BDE9
:10AE4000962B0020072808B513D00A280DD0042817
:10AE500019D10D4B13211888FFF750FF30F008036C
:10AE600011D0BDE80840FDF793B8BDE80840FFF7F2
:10AE700055BF054B1A884FF6FF739A4203D103481A
:10AE800000F0DAFEEAE708BD962B0020C834002067
:10AE900008B548B103280BD10220FFF717FE38B1DF
:10AEA000BDE80840FDF774B8BDE80840FFF736BFBD
:10AEB00008BD0000F7B50378012B33D0022B31D049
:10AEC00073BB1B4C1B4D20782844FDF7BFFB237838
:10AED0000133DBB21D44237015F8012C0A2A05D07A
:10AEE0000D2A03D0144A12889A4219D8012B15D979
:10AEF000124D104E124F2378ADF806300DF10602B8
:10AF00002B883146384601F06DFC082806D01328FE
:10AF1000F1D0052802D008B1FDF73AF800232370DC
:10AF200003B0F0BD406803B0BDE8F040FDF730B8B5
:10AF3000C4340020D0330020942B0020962B002016
:10AF4000982B00202DE9F0410578064645BB154CAD
:10AF5000154BDFF85880E41AE408240444F0010497
:10AF6000B28A95420AD33369134413F8013C0D2B7E
:10AF700016D10A20FDF780FB1128F9E73369585DE7
:10AF8000FDF77AFB074648B11128F7D00246414643
:10AF90002046FCF71DFD3846FCF7FAFF0135DFE7D8
:10AFA000BDE8F0811CD00200F4CF0200E3D702001C
:10AFB0000D4B4A881B889A4214D10A8840F67723A1
:10AFC0009A420FD18B88094A09480A49033B9BB230
:10AFD0001380094A801AC00800041A4640F0030092
:10AFE000FCF7FFBC704700BF962B0020942B00207D
:10AFF0001CD002000ED80200F4CF0200FCF7C8BF3C
:10B0000008B50849084801F055F908B1FCF7C0FF38
:10B010000548F72101F062F918B1BDE80840FCF7D6
:10B02000B7BF08BDB1AF0200FC38002000B54FF03B
:10B0300080436E4D0122C3F850250FCDB1B005AC51
:10B040000FC495E803006A4B6A4A01934FF480737A
:10B0500084E80300CDE903230293674A072301A98B
:10B0600005A8FDF79BFA08B1FCF792FF4FF4804169
:10B070000020FCF70BFB08B1FCF78AFFFCF744FA51
:10B08000FDF798F808B1FCF783FF5C490320FFF750
:10B0900029FD08B1FCF77CFF05A90020FFF70EFE93
:10B0A00008B1FCF775FFFEF753F808B1FCF770FF25
:10B0B00001F014FC08B1FCF76BFF002305A9012087
:10B0C000059301F09DFC08B1FCF762FF05A801F0B3
:10B0D00057FD08B1FCF75CFF112349498DF8043096
:10B0E0000B2201A8FFF70EFE08B1FCF751FF002369
:10B0F000ADF818301023ADF814303C23ADF81630FD
:10B1000005A84FF4C873ADF81A30FFF7F9FD08B180
:10B11000FCF73EFFFFF774FF3A4B3B48059305A948
:10B1200001F0D6F908B1FCF733FF384B38480193EA
:10B1300001A901F0DDFA08B1FCF72AFFAC220021D9
:10B1400005A801F095FE02238DF8143005238DF833
:10B15000173001234021ADF860308DF8903044F273
:10B160005063CDE927132B4A2B4B2C48199205A984
:10B170002E9300F0A8FB08B1FCF70AFF2748012135
:10B1800000F09EFB14220DEB0200002101F070FE86
:10B190004FF4F0234FF4A032CDE9062303238DF8BA
:10B1A00020301F4B0A9305A81E4B0B9300F062FE44
:10B1B00008B1FCF7EDFE1C4801F015FE1B4B1C48C6
:10B1C0001C49C01AC008000440F00300FCF7FCFB57
:10B1D0001248032100F0ECFB08B1FCF7D9FEFCF7A4
:10B1E000A7FA0028FBD1FDF7C9FFF8E770D80200E5
:10B1F00020390020203A0020B5AE020045AE020002
:10B200002AD8020019AD02001439002045AF02000F
:10B21000982B0020902B002091AE0200C834002013
:10B2200025AE0200FDAF020036D80200F4CF0200C6
:10B230001CD0020047D802000369C26893429CBF39
:10B2400080681B18013B981A70472DE9F843D0E934
:10B2500002940546A9EB04084068904520440F4637
:10B26000144404D901F0DBFDEC60BDE8F8834246EC
:10B27000A4EB090401F0D3FD6868224607EB08013E
:10B28000F0E72DE9F843C5680646894617464FF0B2
:10B2900000083469B3687068A54228BFE418013C0F
:10B2A000621B5C1BBC4228BF3C46944228BF14462C
:10B2B00049462844224601F0B2FDB3682544AB421A
:10B2C00008BF00253F1BA044A144F560E1D14046E2
:10B2D000BDE8F88310B5114C114AA2610223C4E9FC
:10B2E0000433104BE361A2644FF400730E4A0F491C
:10B2F0002362E26400231022E01DA3626362E36222
:10B30000A3656365E365226501F0E5FD0849204614
:10B3100001F0E1FD2023A37110BD00BF203B002000
:10B3200088D80200A83B0020983B002091D802005A
:10B3300095D8020070B5164B182400FB04451D4437
:10B3400004FB00331646DC6A012C0ED0022C18D008
:10B35000E4B92846FFF770FF864204D832462846F3
:10B36000FFF773FF3446204670BD2846FFF764FFA1
:10B370008642344628BF044622462846FFF765FF2A
:10B38000F1E72846BDE87040FFF77BBF0024EAE7FD
:10B39000203B0020FFF79EBF6DDF704779DF7047CD
:10B3A0007DDF704764DF70472DE9F04F85B00025E1
:10B3B0000E9CBDF83CB0B4F800A001910746904641
:10B3C0001E46A9463A884A450DDC45B12388013B13
:10B3D000A3EB0A039BB2FF2B3AD806F80A300020F1
:10B3E00005B0BDE8F08F7A6852F82900039000227A
:10B3F0000DF10B0103A8FFF7D5FF0028F0D19DF850
:10B400000B20424521D12288002D14BF00200220AC
:10B4100002EB0801014459451ADC3DB9013292B2F0
:10B42000019B2280B35422880132228022880DF1B0
:10B430000B01324403A8FFF7B5FF0028D0D12188C3
:10B440009DF80B200A442280012509F10109B9E782
:10B450000C20C5E72DE9F341089FBDF8248015466F
:10B46000CDE90078022204461E46FFF79DFF50B941
:10B470003346102229462046CDE9087802B0BDE8BF
:10B48000F041FFF791BF02B0BDE8F0812DE9F04F28
:10B4900000231788138090F82D3085B006460D469E
:10B4A00014465BB3082F01D80C2028E102A8FFF74F
:10B4B00073FF002840F023812388DDF8091008225B
:10B4C000EA54238801339BB21B222380EA54238849
:10B4D00001339BB2EA182380E950BDF80D30938008
:10B4E00023889DF8082006339BB212F0FE0218BF95
:10B4F00001222380EA54238801332380B378FBB1EF
:10B5000023880433BB42CFD802A8FFF747FF0028A7
:10B5100040F0F58023880322EA54238801339BB24C
:10B5200019222380EA542388BDF8082001339BB2F6
:10B53000E9182380EA54120A4A70238802332380D0
:10B54000F2789AB12388D91CB942ADD80221E954C6
:10B55000238801339BB201212380E95423880B44C3
:10B560009BB22380EA5423880B4423807268AAB1DB
:10B570002388D91CB94297D8022192F90020E954B6
:10B58000238801339BB20A212380E95423880133A5
:10B590009BB22380EA542388013323803389002B14
:10B5A00040F0A180338A5BB1CDE900472B460722EA
:10B5B000032106F11000FFF74DFF002840F09F80A7
:10B5C000338B5BB1CDE900472B461522142106F1E0
:10B5D0001800FFF73FFF002840F09180326A002AF0
:10B5E00040F09080D6F82480B8F1000F30D0B8F841
:10B5F00004302188981C8A1C0244BA423FF654AF9A
:10B60000FE283FF651AF03336B54238801339BB2BE
:10B61000FF222380EA54238801339BB22380B8F8A9
:10B620000020EA54E918120A4A702088023080B2D9
:10B630002080B8F804205AB1D8F8081000296BD03F
:10B64000284401F0ECFB2388B8F80420134423803D
:10B6500096F82C30002B40F09880307800284ED09F
:10B660003388012B58D0228802F1020CBC453FF6EA
:10B670001BAF012805D17378023313449F42FFF4B6
:10B6800013AF023FBF1ABFB202A905EB0C00ADF821
:10B690000870FFF785FE90BB3178BDF808300229AD
:10B6A00000F0B98072789A4202D39F4280F0B18054
:10B6B000012940F0B280974293B2C0F0AE80ADF85D
:10B6C00008300821BDF80830FE2B3FF6EDAE228889
:10B6D0000133AB542288013292B22280A9542288CD
:10B6E000134423800BE0CDE900472B4606220221BC
:10B6F00006F10800FFF7AEFE00283FF453AF05B097
:10B70000BDE8F08FB4F800C00CF10603BB423FF671
:10B71000CBAE1188052901D80720F0E76FF4486EF9
:10B7200001EB0E039BB24FF27D3E7345F4D9538873
:10B73000052BF1D96FF44860181880B27045EBD929
:10B740004FF6FF70814201D09942E5D8052305F8F4
:10B750000C30238801339BB212212380E9542388C3
:10B7600001339BB223801188E954E818090A41701B
:10B77000238802339BB223805288EA54E918120AC4
:10B780004A702388023323802CE7B36A002BC3D08E
:10B790004FF000084FF00C0A4FF0160BB16A5FFA39
:10B7A00088F20AFB02F201EB0209B9F80430981C96
:10B7B000FE283FF679AE208803332B5423880133CB
:10B7C0009BB2238005F803B0238801339BB223800A
:10B7D0008A5AEA54E918120A4A702088023080B264
:10B7E0002080B9F804205AB1D9F80810002993D064
:10B7F000284401F014FB2388B9F804201344238063
:10B8000096F82C2008F101085FFA88F39A42C5D80F
:10B8100023E7092156E79F42FBD2ADF8087050E7B5
:10B8200030B5C8B1F2B10024651C8D4206DA158826
:10B83000A54212D805196D789D420ED1A14211D9A9
:10B84000005D48B1013880B230B10234A3B210FAC1
:10B8500084F4A14206DB138030BD055D01352C4424
:10B86000A4B2E1E70020F7E713B513460022ADF8D4
:10B8700006200DF106020446FFF7D2FF10B1BDF815
:10B880000630E01802B010BD72DF704773DF7047FA
:10B8900074DF704738B5012204460D46B0F8141421
:10B8A000D0F81004FFF7E0FF00B1057004F13C028E
:10B8B00004F5826104F15400BDE83840FFF7E4BFAD
:10B8C00080F830107047F8B504460F4600296BD059
:10B8D000002869D091F87A301BB191F89830002B8C
:10B8E00064D14FF0000C84F802C007F178060FCE47
:10B8F000251D0FC50FCE0FC596E8070085E8070088
:10B9000084F830C0D7F8A4306363D7F8A830A363B5
:10B9100004F582624FF6FF73C4F826C4A4F82434F9
:10B92000C4F82024C4F829C422780AB984F8543011
:10B9300094F82430002B14BFEE231F2304F155018B
:10B94000C4F81014A4F8143404F214423846FFF773
:10B950009DFD40BB94F82430002B14BFEE231F2321
:10B9600004F23121C4F81814A4F81C3404F21C4267
:10B9700007F13C00FFF78AFDA8B9A369A4F8483095
:10B980004FF480730125A4F85030636920640146A8
:10B9900084F83C50636404F13C0204F15400FFF766
:10B9A00073FF00B92570F8BD0E20FCE70720FAE709
:10B9B000F8B5067804460D46002E00F006810023F7
:10B9C000C0F82634C0F82934C388817000F22647B5
:10B9D0000BB1012903D0E37943B1022D06D1636B8A
:10B9E000ABB1012284F82D240820984704F22743A4
:10B9F00004F22D4113F8012B12B99942FAD11646DF
:10BA00006B1E032B53D8DFE803F0050B0F1284F8ED
:10BA10002D34EBE7A3791BB194F8243003B95EB958
:10BA2000E3790BB1002E44D1237A002B43D1637A02
:10BA3000002B0CBF00250425636BA570002B3CD0A8
:10BA4000033D012D39D86279002A36D094F82E248E
:10BA50009ABB84F83024012284F82F2407209847C9
:10BA600004F13C0518220021284601F001FAE26A9F
:10BA70000123511E994284F83C3001D9042A00D197
:10BA8000D3B284F8513094F8243043B1A26A511EE5
:10BA9000012902D9042A18BF012284F85220A27871
:10BAA000042A1CD8DFE802F0780D23365A0000255E
:10BAB000C2E70225C0E70325BEE7002384F82F3440
:10BAC000CEE7012384F831300023C4E91073C4F8B1
:10BAD0002034022384F83C308023A4F84830A37833
:10BAE000002B5DD1636B002B6BD1002068E0002B35
:10BAF00014BF0723032384F83C302369A4F848309B
:10BB000000230222C4F82034E36884F8312027643B
:10BB10006364E4E762696264A269A4F8482013B12F
:10BB2000062384F83C306379B3B194F82E349BB982
:10BB300094F8303483B1022384F850300421204635
:10BB4000FFF7A8FE0028CAD1052384F8313004F598
:10BB50008263C4F82034C2E70323F6E7E269626433
:10BB6000226AA4F8482013B1062384F83C30637994
:10BB700083B194F82E346BB994F8303453B1022366
:10BB800084F8503004212046FFF784FE0028A6D117
:10BB90000623DAE70423D8E7002384F831309EE750
:10BBA000D4F820142A4604F15400FFF76DFE38B98A
:10BBB00094F8301094F85400FFF768FE002891D0F4
:10BBC000F8BD94F8310098478FE70820F8E703881C
:10BBD000112B10B50C460AD0262B1FD0102B05D1E7
:10BBE000C37B012B02D18388A1F8243410BD00222D
:10BBF000838881F82E24B1F824249A42F6D10B7957
:10BC0000002BF3D101212046FFF7D2FE0028EDD012
:10BC1000A36B002BEAD0BDE810401847037A013B24
:10BC2000012BE3D8897805230131B1FBF3F303EB52
:10BC30008303C91AC9B2E6E738B5044690F8540040
:10BC4000FFF726FE012384F82E34002384F83034D5
:10BC500084F8503006212046FFF71CFE054638B90F
:10BC6000A1782046FFF7A4FE10B1A36B03B198475B
:10BC7000284638BD75DF704776DF70477ADF70473A
:10BC80007BDF7047034B1A8882420CBF18460020A6
:10BC9000704700BFC43D0020024B9B6903B11847A9
:10BCA000704700BFA83D002073B585B22846FFF756
:10BCB000E9FF044638B3174E027A337B9A420CD21E
:10BCC00000F10A012846FFF7D5FFF0B111281AD07C
:10BCD00002B0BDE87040FFF7DFBF00230372337C82
:10BCE00043B13B212846FFF7C7FF30F0080301D0DE
:10BCF000FFF7D2FF736933B100228DF80420ADF84D
:10BD0000065001A8984702B070BD237A0133237210
:10BD1000F9E700BFA83D002037B50B46497A0F4A26
:10BD200079B9D2E901141D7A0246002D18BF2146C7
:10BD30005868FCF783FA78B103B0BDE83040FFF7EC
:10BD4000ABBF00211972536933B10122ADF806006F
:10BD50008DF8042001A8984703B030BDA83D00200D
:10BD60004B8802889A4212D842889A420FD3808820
:10BD70008B8840F2F311884294BF021A421A9A4209
:10BD800005D80844984234BF0020012070470020A5
:10BD9000704700000388122B70B5014659D004D8B3
:10BDA000102B1ED0112B44D070BD502BFCD12F4B2B
:10BDB000C288DB899A42F7D1038A022BF4D18688A4
:10BDC0003046FFF75FFF05460028EDD001F1120075
:10BDD00000F07FF938BB6868FCF75EFA0028E3D012
:10BDE00009E0C37B012BDFD14FF6FF70FFF74AFF5D
:10BDF000054620B90420BDE87040FFF74DBF1C4A3E
:10BE00008E880680002303721368C0F80A305368D6
:10BE1000C0F80E3010310A30FFF7A2FF134B6872E2
:10BE2000DB89002BC0D129463046BDE87040FFF7C2
:10BE300073BF8088FFF726FF04460028B4D040680F
:10BE4000FCF72AFA08B1FFF727FF4FF6FF732380AC
:10BE5000AAE786883046FFF715FF05460028A3D0DD
:10BE600008310A30FFF77CFF6872DCE7A83D00204C
:10BE7000D83D0020F8B5064648B305460FCD154F0E
:10BE80003C460FC495E8070084E807003068124C70
:10BE90003C60B0B1FFF7F2FEC0B9326813682360AE
:10BEA000536863600D480E4A4FF6FF7303800D4BD5
:10BEB00040F8043F0021FCF7AFF9002818BF032029
:10BEC00004E02046FFF7DCFE0028EBD0F8BD0E2092
:10BED000FCE700BFA83D0020D83D0020C43D002065
:10BEE000A9BC0200E03D00200AB1FCF7EDBDFCF763
:10BEF000F4BD73B50191019C06466CB100252C463A
:10BF0000294601A8FCF7F3FD18B106EB4403013400
:10BF10009D800135142DF3D13046346002B070BDE0
:10BF20002DE9F04703888488103B8CB005460A2B26
:10BF300021D8DFE803F006402020202020202065C3
:10BF40004700DFF8E880D8F80830DB430093D8F8E2
:10BF500004106846FCF7F7FD009901A8FFF7C9FF38
:10BF60000DF108090027019B9F4207D3132C12D91A
:10BF70000420FCF70DF80CB0BDE8F08739F802ABEF
:10BF800000260136514608EB8600FCF7A6FD1E2E62
:10BF9000F7D10137E7E71F482146FCF795FD1E481A
:10BFA0002146FCF791FDEB7B022BE4D11B48214697
:10BFB000FCF78AFDDFE7174821460CB0BDE8F047E3
:10BFC000FCF78BBD027A16483F2A4FEA121521462C
:10BFD00094BF00220122FFF787FF022D94BF0022A9
:10BFE000012210482146FFF77FFF012D0E4894BF24
:10BFF0000022012221460CB0BDE8F047FFF774BFD4
:10C00000037A002BB7D1427A0548C2F3C002214619
:10C01000F1E700BF083E0020043E00200C3E002057
:10C02000183E0020143E0020103E0020003E00205C
:10C030001328014602D80248FCF759BD002070477A
:10C04000043E002010B50446FFF7F2FF002814BF9D
:10C050002046142010BD70B50546164608460AB99C
:10C060000E2070BD00231360002DF9D02B68002B2B
:10C07000F6D0EB8813F003040ED1FFF7E3FFC0B254
:10C0800014280BD02B7983420AD9EA882B6800FB4D
:10C09000023030602046E4E70720E2E70520E0E7D1
:10C0A0000420DEE7AADF7047002301380B70042864
:10C0B00006D8DFE800F00306080A0C0011230B7015
:10C0C00070472123FBE73123F9E71223F7E7222307
:10C0D000F5E7008800F001007047F0B58B7891B06B
:10C0E0000C46012B38BF012300278DF80E30054682
:10C0F0000B88607CADF80C306946ADF800708DF8A7
:10C100000270FFF7D1FFA07C0DF10101FFF7CCFF1A
:10C110001646237BE27B217D43EAC203227C43EA6D
:10C1200002139DF80220B94222F0190203F019030C
:10C1300014BF02210121134361F342031C2239463B
:10C1400009A88DF8023000F093FE637B13F0300FE6
:10C1500014D00DF10901E07CADF808708DF80A707B
:10C16000FFF7A2FF11238DF808309DF80A30012156
:10C1700002AA61F342038DF80A300E92637B8DF8B8
:10C180002430A37B8DF825300023CDE906330893B6
:10C1900003AB0493A388ADF81C30A368CDF814D08A
:10C1A0001BB1E288ADF818200893A36973B301A905
:10C1B0000022ADF804208A701A88ADF82C205A8825
:10C1C000ADF82E205A680D91187B0A92FFF76CFF8C
:10C1D000A3690DF10501587BFFF766FFA3699A7A01
:10C1E000197A41EAC201DA7A9B7B41EA02119DF891
:10C1F0000620002B01F0190122F0190214BF0223BE
:10C200000123114363F342018DF80610E36903B182
:10C210000C93334604AA09A92846FFF743FF11B03F
:10C22000F0BD90DF7047A5DF7047B5DF70470000B5
:10C230007FB50023ADF80810ADF80A106A4602A9D0
:10C240000646ADF80C30ADF80E300093ADF8043072
:10C25000FFF7E7FF054600B3114B124CE41AE40860
:10C26000FDF718F8240444F0010403460E49324651
:10C270002046FBF7B6FBBDF80020BDF8023052EABD
:10C28000030103D009492046FBF7ABFBBDF80420AE
:10C290001AB107492046FBF79BFB284604B070BD46
:10C2A000F4CF020044D002009CD80200E6D802007D
:10C2B00025D9020080B14FF0F7130360FB2303710F
:10C2C000F723C3801723038141F6FB32002301616A
:10C2D00043818281184670470E20704730B1A1F12A
:10C2E0001703E02B04D80180002070470E20704710
:10C2F0000720704713B5034680880C46B8B91A88E2
:10C30000242A00F09C8014D8112A74D0232A00F02B
:10C31000A780102A3ED0A37A4BB1E1880020FFF716
:10C3200082FF002840F0A2804FF48073638102B046
:10C3300010BD3A2A68D0552AEDD1DB88C988A07291
:10C34000172B38BF17238B4228BF0B462381FFF7DB
:10C350006CFF60B1FCF79EFF4E4B4F4902464F48C1
:10C360001B1ADB081B0443F00100FBF731FBE27AE8
:10C37000002AD0D12369002BCDD040F67721ADF82B
:10C3800002202289ADF80010ADF80420694620464D
:10C390009847C0E7DB7B0A790A73012B13D0022B85
:10C3A00014D0E18823898B4205D20020FFF73BFFA0
:10C3B00070B90123E372217B637B8B42ABD20020F7
:10C3C000FFF736FFA7E70B88E380EAE74B88FBE738
:10C3D000112802D10123A372EDE7FCF75BFF2D4B7F
:10C3E0002F4902462D481B1ADB081B0443F00100AD
:10C3F000FBF7EEFADFE7F723CB8017230B8141F63B
:10C40000FB3348818B8186E75B89CA88934228BFCA
:10C410001346172B0A6938BF17230B8162B1C97AFB
:10C4200051B140F67721ADF80010ADF80200ADF83B
:10C430000430694620469047002363816BE71A7AEF
:10C440000B694A73002B3FF466AF4DF67A218DF8E5
:10C450000500ADF80010ADF802008DF8042095E756
:10C46000197A237B994228BF1946A9E711283FF47E
:10C470005EAFFCF70FFF074B0949024607481B1A3E
:10C48000DB081B0443F0010002B0BDE81040FBF7DD
:10C490009FBA00BF44D00200ACD90200F4CF020022
:10C4A0007BD90200B0DF704766DF704710B500210E
:10C4B00004464088FFF7F8FF034608B9237210BD11
:10C4C000112801D10123F9E76368BDE8104018473E
:10C4D00060B159B10378DE2B0AD00B684360DE23CC
:10C4E00003704FF6FF734380002070470E207047A3
:10C4F0000820704728B10378DE2B04D1418000204A
:10C5000070470E20704708207047F0B5054685B08B
:10C510000C46002942D0002840D00B78DE2B3DD1BC
:10C5200082884B889A4204D10B7A13B10846FFF7F0
:10C53000BDFF2B88112B33D0512B0FD0012B2DD1C8
:10C540002B7A012B2AD1A9886288914226D12046D4
:10C55000237205B0BDE8F040FFF7A8BFAE8863883E
:10C56000B3421BD1AF79022F18D1AD7B2B1F022B09
:10C5700014D800211022684600F07AFC052D18BF5F
:10C580004FF4C0736946304618BFADF804308DF8DB
:10C590000070FFF787FF08B16368984705B0F0BDEA
:10C5A0006388AA889A4204BF4FF6FF736380F5E759
:10C5B000A8DF7047ADDF7047AEDF704762DF7047BE
:10C5C000F0B505468BB00C4600295FD000285DD041
:10C5D0000388502B35D0572B6CD0102B56D1818827
:10C5E0006069002601AA0196FFF735FD0223218923
:10C5F000A888ADF80A6002AACDF80CD0ADF80830D2
:10C60000FFF7D8FF002841D1A369002B3ED0039843
:10C61000FFF75FFD002839D0019E0EB10123337072
:10C620001822002104A800F023FC02238DF810300A
:10C63000AB88ADF81830A3690594079604A898470D
:10C6400024E08188606902AAFFF705FD1822002115
:10C6500004A800F00DFCAB882189ADF81830EB88F8
:10C66000029A05949942079217D12E8A022E14D16C
:10C6700062B105F11200FFF72CFD029B40B10122CF
:10C680001A708DF81060A369002BD7D10BB0F0BDE4
:10C69000187003238DF81030F5E7A2899A42F5D17E
:10C6A000A369002BF2D005F1120208922A8AADF894
:10C6B0002420C3E78188606902AAFFF7CCFC014609
:10C6C0000028E3D1029F3B78002BDFD0A669002E23
:10C6D000DCD0182204A800F0CBFB01238DF8103029
:10C6E000AB880594ADF81830079704A8B047CDE79C
:10C6F000F0B53A4B8FB002AD04460A4603F1100C78
:10C700002F46186859682E4603C6083363453546D8
:10C71000F7D1002C5FD0002A5DD01368A3612146B9
:10C720003846FFF74BFF002853D12246012512F867
:10C73000023B8DF8063001A92846ADF80450FFF7FA
:10C7400037FF002845D10146202206A800F090FBC3
:10C7500022460223ADF8183012F80C3B8DF81A303F
:10C76000BDF824301E4E6088079623F44F6323F0F3
:10C770000F0343F440632B4306A9ADF824308DF832
:10C7800029508DF82A50FFF7A8FC10BB0146202243
:10C7900006A800F06DFB22460323ADF8183012F80E
:10C7A000043B8DF81A30BDF824306088079623F4D6
:10C7B000875323F01F0343F480532B43ADF82430F9
:10C7C00006A940F201138DF82950ADF82A30FFF781
:10C7D00084FC0FB0F0BD0E20FBE700BFF0D90200D3
:10C7E000F4000100F0B50F4687B016461C4605461A
:10C7F00010B3406901AA1946FFF72DFCD0B94FF6D6
:10C80000FF739C421AD0019BC3B11B78C3B133881C
:10C81000F42B17D8AB88CDF80B008DF80F00ADF8CE
:10C82000083002A901232046CDE904678DF80A30BB
:10C83000FFF7C2FE07B0F0BD0E20FBE70520F9E7C9
:10C840000820F7E70720F5E710DF704713B5044627
:10C8500009496846FCF7C3FC019808B902B010BD4D
:10C86000D0E900212046904718B16846FCF7C1FC8A
:10C87000F2E71120F2E700BF0CDA020013B504461C
:10C8800007496846FCF7ABFC019B0BB902B010BD31
:10C890002046D3E9002190476846FCF7AAFCF3E75D
:10C8A00024DA02000B4991F816335A09EC2313419C
:10C8B000DB0706D5084B9A683AB94FF480030B6042
:10C8C000704742F20200FBF763BB1A6842F4800231
:10C8D0001A60704700E100E088320020F7B5194F78
:10C8E0003C7864BB184E012520463570FFF7AEFF3B
:10C8F000112821D02046FFF7C1FF144B8DF80340CB
:10C90000186801900DF10300FBF7DEFE104901A845
:10C91000FFF79AFF0446B0FA80F0400938709DF89E
:10C920000300FBF7F5FE3CB90A4B34701C70FFF7AF
:10C93000B9FF2846FFF7A2FF204603B0F0BD082448
:10C94000FAE700BF7D3E00207C3E002008DA0200AE
:10C95000AD7F02007E3E0020014B1878704700BF7B
:10C960007D3E002007B508496846FCF738FC019B6E
:10C9700013B903B05DF804FBD3E900209047684683
:10C98000FCF737FCF3E700BF18DA0200FFF7EABF55
:10C9900060DF704769DF704761DF704730B5134D66
:10C9A000ADF5017D4FF4FA740DF1020103A8ADF865
:10C9B0000240FFF7F1FF70B9294601A8FCF70FFC10
:10C9C000029B002BF0D003A8D3E90021904701A8D7
:10C9D000FCF70FFCF4E7052805D00DF5017DBDE857
:10C9E0003040FBF7D5BA0DF5017D30BDACDC02005F
:10C9F000024B1B780BB1FFF7D1BF70477F3E002081
:10CA000030B5054685B00C46002900F0A48000230F
:10CA1000CDE90133514A039301230A608DF80400E4
:10CA20008DF8063001A906232020ADF80830FFF765
:10CA3000B1FF60B1FCF72EFC494B4A4902464A4817
:10CA40001B1ADB081B0443F00100FAF7C1FF0023A7
:10CA5000CDE9013303932268012301A940208DF819
:10CA60000530FFF797FF60B1FCF714FC3C4B3F49E2
:10CA700002463D481B1ADB081B0443F00100FAF78D
:10CA8000A7FF0023CDE90133039322688DF80450FA
:10CA9000F72301A92320ADF80630FFF77BFF60B133
:10CAA000FCF7F8FB2E4B324902462F481B1ADB08D5
:10CAB0001B0443F00100FAF78BFF002301202268DA
:10CAC000039301A9CDE901338DF80400FFF762FF5C
:10CAD00060B1FCF7DFFB224B2649024622481B1AB5
